{
  "_format": "hh-sol-artifact-1",
  "contractName": "Dname",
  "sourceName": "contracts/Dname.sol",
  "abi": [
    {
      "inputs": [
        {
          "internalType": "string",
          "name": "_tld",
          "type": "string"
        }
      ],
      "stateMutability": "payable",
      "type": "constructor"
    },
    {
      "inputs": [],
      "name": "AlreadyRegistered",
      "type": "error"
    },
    {
      "inputs": [
        {
          "internalType": "string",
          "name": "name",
          "type": "string"
        }
      ],
      "name": "InvalidName",
      "type": "error"
    },
    {
      "inputs": [],
      "name": "Unauthorized",
      "type": "error"
    },
    {
      "anonymous": false,
      "inputs": [
        {
          "indexed": true,
          "internalType": "address",
          "name": "owner",
          "type": "address"
        },
        {
          "indexed": true,
          "internalType": "address",
          "name": "approved",
          "type": "address"
        },
        {
          "indexed": true,
          "internalType": "uint256",
          "name": "tokenId",
          "type": "uint256"
        }
      ],
      "name": "Approval",
      "type": "event"
    },
    {
      "anonymous": false,
      "inputs": [
        {
          "indexed": true,
          "internalType": "address",
          "name": "owner",
          "type": "address"
        },
        {
          "indexed": true,
          "internalType": "address",
          "name": "operator",
          "type": "address"
        },
        {
          "indexed": false,
          "internalType": "bool",
          "name": "approved",
          "type": "bool"
        }
      ],
      "name": "ApprovalForAll",
      "type": "event"
    },
    {
      "anonymous": false,
      "inputs": [
        {
          "indexed": true,
          "internalType": "address",
          "name": "from",
          "type": "address"
        },
        {
          "indexed": true,
          "internalType": "address",
          "name": "to",
          "type": "address"
        },
        {
          "indexed": true,
          "internalType": "uint256",
          "name": "tokenId",
          "type": "uint256"
        }
      ],
      "name": "Transfer",
      "type": "event"
    },
    {
      "inputs": [
        {
          "internalType": "address",
          "name": "to",
          "type": "address"
        },
        {
          "internalType": "uint256",
          "name": "tokenId",
          "type": "uint256"
        }
      ],
      "name": "approve",
      "outputs": [],
      "stateMutability": "nonpayable",
      "type": "function"
    },
    {
      "inputs": [
        {
          "internalType": "address",
          "name": "owner",
          "type": "address"
        }
      ],
      "name": "balanceOf",
      "outputs": [
        {
          "internalType": "uint256",
          "name": "",
          "type": "uint256"
        }
      ],
      "stateMutability": "view",
      "type": "function"
    },
    {
      "inputs": [
        {
          "internalType": "string",
          "name": "",
          "type": "string"
        }
      ],
      "name": "domains",
      "outputs": [
        {
          "internalType": "address",
          "name": "",
          "type": "address"
        }
      ],
      "stateMutability": "view",
      "type": "function"
    },
    {
      "inputs": [
        {
          "internalType": "string",
          "name": "name",
          "type": "string"
        }
      ],
      "name": "getAddress",
      "outputs": [
        {
          "internalType": "address",
          "name": "",
          "type": "address"
        }
      ],
      "stateMutability": "view",
      "type": "function"
    },
    {
      "inputs": [],
      "name": "getAllNames",
      "outputs": [
        {
          "internalType": "string[]",
          "name": "",
          "type": "string[]"
        }
      ],
      "stateMutability": "view",
      "type": "function"
    },
    {
      "inputs": [
        {
          "internalType": "uint256",
          "name": "tokenId",
          "type": "uint256"
        }
      ],
      "name": "getApproved",
      "outputs": [
        {
          "internalType": "address",
          "name": "",
          "type": "address"
        }
      ],
      "stateMutability": "view",
      "type": "function"
    },
    {
      "inputs": [
        {
          "internalType": "string",
          "name": "name",
          "type": "string"
        }
      ],
      "name": "getNftId",
      "outputs": [
        {
          "internalType": "uint256",
          "name": "",
          "type": "uint256"
        }
      ],
      "stateMutability": "view",
      "type": "function"
    },
    {
      "inputs": [
        {
          "internalType": "string",
          "name": "name",
          "type": "string"
        }
      ],
      "name": "getRecord",
      "outputs": [
        {
          "components": [
            {
              "internalType": "string",
              "name": "nickname",
              "type": "string"
            },
            {
              "internalType": "string",
              "name": "spotifyLink",
              "type": "string"
            },
            {
              "internalType": "string",
              "name": "twitter",
              "type": "string"
            }
          ],
          "internalType": "struct Dname.Record",
          "name": "",
          "type": "tuple"
        }
      ],
      "stateMutability": "view",
      "type": "function"
    },
    {
      "inputs": [
        {
          "internalType": "address",
          "name": "owner",
          "type": "address"
        },
        {
          "internalType": "address",
          "name": "operator",
          "type": "address"
        }
      ],
      "name": "isApprovedForAll",
      "outputs": [
        {
          "internalType": "bool",
          "name": "",
          "type": "bool"
        }
      ],
      "stateMutability": "view",
      "type": "function"
    },
    {
      "inputs": [],
      "name": "isOwner",
      "outputs": [
        {
          "internalType": "bool",
          "name": "",
          "type": "bool"
        }
      ],
      "stateMutability": "view",
      "type": "function"
    },
    {
      "inputs": [],
      "name": "name",
      "outputs": [
        {
          "internalType": "string",
          "name": "",
          "type": "string"
        }
      ],
      "stateMutability": "view",
      "type": "function"
    },
    {
      "inputs": [
        {
          "internalType": "uint256",
          "name": "",
          "type": "uint256"
        }
      ],
      "name": "names",
      "outputs": [
        {
          "internalType": "string",
          "name": "",
          "type": "string"
        }
      ],
      "stateMutability": "view",
      "type": "function"
    },
    {
      "inputs": [],
      "name": "owner",
      "outputs": [
        {
          "internalType": "address payable",
          "name": "",
          "type": "address"
        }
      ],
      "stateMutability": "view",
      "type": "function"
    },
    {
      "inputs": [
        {
          "internalType": "uint256",
          "name": "tokenId",
          "type": "uint256"
        }
      ],
      "name": "ownerOf",
      "outputs": [
        {
          "internalType": "address",
          "name": "",
          "type": "address"
        }
      ],
      "stateMutability": "view",
      "type": "function"
    },
    {
      "inputs": [
        {
          "internalType": "string",
          "name": "name",
          "type": "string"
        }
      ],
      "name": "price",
      "outputs": [
        {
          "internalType": "uint256",
          "name": "",
          "type": "uint256"
        }
      ],
      "stateMutability": "pure",
      "type": "function"
    },
    {
      "inputs": [
        {
          "internalType": "string",
          "name": "name",
          "type": "string"
        }
      ],
      "name": "register",
      "outputs": [],
      "stateMutability": "payable",
      "type": "function"
    },
    {
      "inputs": [
        {
          "internalType": "address",
          "name": "from",
          "type": "address"
        },
        {
          "internalType": "address",
          "name": "to",
          "type": "address"
        },
        {
          "internalType": "uint256",
          "name": "tokenId",
          "type": "uint256"
        }
      ],
      "name": "safeTransferFrom",
      "outputs": [],
      "stateMutability": "nonpayable",
      "type": "function"
    },
    {
      "inputs": [
        {
          "internalType": "address",
          "name": "from",
          "type": "address"
        },
        {
          "internalType": "address",
          "name": "to",
          "type": "address"
        },
        {
          "internalType": "uint256",
          "name": "tokenId",
          "type": "uint256"
        },
        {
          "internalType": "bytes",
          "name": "data",
          "type": "bytes"
        }
      ],
      "name": "safeTransferFrom",
      "outputs": [],
      "stateMutability": "nonpayable",
      "type": "function"
    },
    {
      "inputs": [
        {
          "internalType": "string",
          "name": "name",
          "type": "string"
        },
        {
          "internalType": "string",
          "name": "nickname",
          "type": "string"
        },
        {
          "internalType": "string",
          "name": "spotifyLink",
          "type": "string"
        },
        {
          "internalType": "string",
          "name": "twitter",
          "type": "string"
        }
      ],
      "name": "setAllRecords",
      "outputs": [],
      "stateMutability": "nonpayable",
      "type": "function"
    },
    {
      "inputs": [
        {
          "internalType": "address",
          "name": "operator",
          "type": "address"
        },
        {
          "internalType": "bool",
          "name": "approved",
          "type": "bool"
        }
      ],
      "name": "setApprovalForAll",
      "outputs": [],
      "stateMutability": "nonpayable",
      "type": "function"
    },
    {
      "inputs": [
        {
          "internalType": "string",
          "name": "name",
          "type": "string"
        },
        {
          "internalType": "string",
          "name": "nickname",
          "type": "string"
        }
      ],
      "name": "setNickname",
      "outputs": [],
      "stateMutability": "nonpayable",
      "type": "function"
    },
    {
      "inputs": [
        {
          "internalType": "string",
          "name": "name",
          "type": "string"
        },
        {
          "internalType": "string",
          "name": "spotifyLink",
          "type": "string"
        }
      ],
      "name": "setSpotifyLink",
      "outputs": [],
      "stateMutability": "nonpayable",
      "type": "function"
    },
    {
      "inputs": [
        {
          "internalType": "string",
          "name": "name",
          "type": "string"
        },
        {
          "internalType": "string",
          "name": "twitter",
          "type": "string"
        }
      ],
      "name": "setTwitter",
      "outputs": [],
      "stateMutability": "nonpayable",
      "type": "function"
    },
    {
      "inputs": [
        {
          "internalType": "bytes4",
          "name": "interfaceId",
          "type": "bytes4"
        }
      ],
      "name": "supportsInterface",
      "outputs": [
        {
          "internalType": "bool",
          "name": "",
          "type": "bool"
        }
      ],
      "stateMutability": "view",
      "type": "function"
    },
    {
      "inputs": [],
      "name": "symbol",
      "outputs": [
        {
          "internalType": "string",
          "name": "",
          "type": "string"
        }
      ],
      "stateMutability": "view",
      "type": "function"
    },
    {
      "inputs": [],
      "name": "tld",
      "outputs": [
        {
          "internalType": "string",
          "name": "",
          "type": "string"
        }
      ],
      "stateMutability": "view",
      "type": "function"
    },
    {
      "inputs": [
        {
          "internalType": "uint256",
          "name": "tokenId",
          "type": "uint256"
        }
      ],
      "name": "tokenURI",
      "outputs": [
        {
          "internalType": "string",
          "name": "",
          "type": "string"
        }
      ],
      "stateMutability": "view",
      "type": "function"
    },
    {
      "inputs": [
        {
          "internalType": "address",
          "name": "from",
          "type": "address"
        },
        {
          "internalType": "address",
          "name": "to",
          "type": "address"
        },
        {
          "internalType": "uint256",
          "name": "tokenId",
          "type": "uint256"
        }
      ],
      "name": "transferFrom",
      "outputs": [],
      "stateMutability": "nonpayable",
      "type": "function"
    },
    {
      "inputs": [
        {
          "internalType": "string",
          "name": "name",
          "type": "string"
        }
      ],
      "name": "valid",
      "outputs": [
        {
          "internalType": "bool",
          "name": "",
          "type": "bool"
        }
      ],
      "stateMutability": "pure",
      "type": "function"
    },
    {
      "inputs": [],
      "name": "withdraw",
      "outputs": [],
      "stateMutability": "nonpayable",
      "type": "function"
    }
  ],
  "bytecode": "0x6080604052604051806108a0016040528061086b81526020016200634761086b9139600990816200003191906200051f565b506040518060400160405280600d81526020017f3c2f746578743e3c2f7376673e00000000000000000000000000000000000000815250600a90816200007891906200051f565b5060405162006bb238038062006bb283398181016040528101906200009e91906200076a565b6040518060400160405280601481526020017f506f6c79676f6e204e616d6520536572766963650000000000000000000000008152506040518060400160405280600381526020017f504e53000000000000000000000000000000000000000000000000000000000081525081600090816200011b91906200051f565b5080600190816200012d91906200051f565b50505033600f60006101000a81548173ffffffffffffffffffffffffffffffffffffffff021916908373ffffffffffffffffffffffffffffffffffffffff16021790555080600890816200018291906200051f565b50620001cf6040518060400160405280601881526020017f2573206e616d652073657276696365206465706c6f796564000000000000000081525082620001d660201b620024641760201c565b5062000848565b620002788282604051602401620001ef9291906200080d565b6040516020818303038152906040527f4b5c4277000000000000000000000000000000000000000000000000000000007bffffffffffffffffffffffffffffffffffffffffffffffffffffffff19166020820180517bffffffffffffffffffffffffffffffffffffffffffffffffffffffff83818316178352505050506200027c60201b60201c565b5050565b60008151905060006a636f6e736f6c652e6c6f679050602083016000808483855afa5050505050565b600081519050919050565b7f4e487b7100000000000000000000000000000000000000000000000000000000600052604160045260246000fd5b7f4e487b7100000000000000000000000000000000000000000000000000000000600052602260045260246000fd5b600060028204905060018216806200032757607f821691505b6020821081036200033d576200033c620002df565b5b50919050565b60008190508160005260206000209050919050565b60006020601f8301049050919050565b600082821b905092915050565b600060088302620003a77fffffffffffffffffffffffffffffffffffffffffffffffffffffffffffffffff8262000368565b620003b3868362000368565b95508019841693508086168417925050509392505050565b6000819050919050565b6000819050919050565b600062000400620003fa620003f484620003cb565b620003d5565b620003cb565b9050919050565b6000819050919050565b6200041c83620003df565b620004346200042b8262000407565b84845462000375565b825550505050565b600090565b6200044b6200043c565b6200045881848462000411565b505050565b5b8181101562000480576200047460008262000441565b6001810190506200045e565b5050565b601f821115620004cf57620004998162000343565b620004a48462000358565b81016020851015620004b4578190505b620004cc620004c38562000358565b8301826200045d565b50505b505050565b600082821c905092915050565b6000620004f460001984600802620004d4565b1980831691505092915050565b60006200050f8383620004e1565b9150826002028217905092915050565b6200052a82620002a5565b67ffffffffffffffff811115620005465762000545620002b0565b5b6200055282546200030e565b6200055f82828562000484565b600060209050601f83116001811462000597576000841562000582578287015190505b6200058e858262000501565b865550620005fe565b601f198416620005a78662000343565b60005b82811015620005d157848901518255600182019150602085019450602081019050620005aa565b86831015620005f15784890151620005ed601f891682620004e1565b8355505b6001600288020188555050505b505050505050565b6000604051905090565b600080fd5b600080fd5b600080fd5b600080fd5b6000601f19601f8301169050919050565b620006408262000624565b810181811067ffffffffffffffff82111715620006625762000661620002b0565b5b80604052505050565b60006200067762000606565b905062000685828262000635565b919050565b600067ffffffffffffffff821115620006a857620006a7620002b0565b5b620006b38262000624565b9050602081019050919050565b60005b83811015620006e0578082015181840152602081019050620006c3565b60008484015250505050565b600062000703620006fd846200068a565b6200066b565b9050828152602081018484840111156200072257620007216200061f565b5b6200072f848285620006c0565b509392505050565b600082601f8301126200074f576200074e6200061a565b5b815162000761848260208601620006ec565b91505092915050565b60006020828403121562000783576200078262000610565b5b600082015167ffffffffffffffff811115620007a457620007a362000615565b5b620007b28482850162000737565b91505092915050565b600082825260208201905092915050565b6000620007d982620002a5565b620007e58185620007bb565b9350620007f7818560208601620006c0565b620008028162000624565b840191505092915050565b60006040820190508181036000830152620008298185620007cc565b905081810360208301526200083f8184620007cc565b90509392505050565b615aef80620008586000396000f3fe6080604052600436106101cd5760003560e01c806370a08231116100f7578063ae11ca4411610095578063e985e9c511610064578063e985e9c5146106d0578063f2c298be1461070d578063fb825e5f14610729578063fe2c619814610754576101cd565b8063ae11ca4414610604578063b88d4fde1461062d578063bf40fac114610656578063c87b56dd14610693576101cd565b80638f32d59b116100d15780638f32d59b1461054857806395d89b41146105735780639791c0971461059e578063a22cb465146105db576101cd565b806370a08231146104b757806375656219146104f45780638da5cb5b1461051d576101cd565b8063264492351161016f57806342842e0e1161013e57806342842e0e146103d75780634622ab03146104005780634b0b49501461043d5780636352211e1461047a576101cd565b8063264492351461032f5780632d5514321461036c5780633b6e1c97146103975780633ccfd60b146103c0576101cd565b8063095ea7b3116101ab578063095ea7b31461027757806311dd8845146102a05780631ecdc4d8146102dd57806323b872dd14610306576101cd565b806301ffc9a7146101d257806306fdde031461020f578063081812fc1461023a575b600080fd5b3480156101de57600080fd5b506101f960048036038101906101f49190613b2e565b610791565b6040516102069190613b76565b60405180910390f35b34801561021b57600080fd5b50610224610873565b6040516102319190613c21565b60405180910390f35b34801561024657600080fd5b50610261600480360381019061025c9190613c79565b610905565b60405161026e9190613ce7565b60405180910390f35b34801561028357600080fd5b5061029e60048036038101906102999190613d2e565b61094b565b005b3480156102ac57600080fd5b506102c760048036038101906102c29190613dd3565b610a62565b6040516102d49190613ec8565b60405180910390f35b3480156102e957600080fd5b5061030460048036038101906102ff9190613eea565b610c53565b005b34801561031257600080fd5b5061032d60048036038101906103289190613f6b565b610ddc565b005b34801561033b57600080fd5b50610356600480360381019061035191906140ee565b610e3c565b6040516103639190613ce7565b60405180910390f35b34801561037857600080fd5b50610381610e85565b60405161038e9190613c21565b60405180910390f35b3480156103a357600080fd5b506103be60048036038101906103b99190613eea565b610f13565b005b3480156103cc57600080fd5b506103d56110a5565b005b3480156103e357600080fd5b506103fe60048036038101906103f99190613f6b565b61116b565b005b34801561040c57600080fd5b5061042760048036038101906104229190613c79565b61118b565b6040516104349190613c21565b60405180910390f35b34801561044957600080fd5b50610464600480360381019061045f9190613dd3565b61122b565b6040516104719190614146565b60405180910390f35b34801561048657600080fd5b506104a1600480360381019061049c9190613c79565b611256565b6040516104ae9190613ce7565b60405180910390f35b3480156104c357600080fd5b506104de60048036038101906104d99190614161565b6112dc565b6040516104eb9190614146565b60405180910390f35b34801561050057600080fd5b5061051b60048036038101906105169190613eea565b611393565b005b34801561052957600080fd5b5061053261151c565b60405161053f91906141af565b60405180910390f35b34801561055457600080fd5b5061055d611542565b60405161056a9190613b76565b60405180910390f35b34801561057f57600080fd5b5061058861159a565b6040516105959190613c21565b60405180910390f35b3480156105aa57600080fd5b506105c560048036038101906105c09190613dd3565b61162c565b6040516105d29190613b76565b60405180910390f35b3480156105e757600080fd5b5061060260048036038101906105fd91906141f6565b6116e0565b005b34801561061057600080fd5b5061062b60048036038101906106269190614236565b6116f6565b005b34801561063957600080fd5b50610654600480360381019061064f91906143c0565b611a3f565b005b34801561066257600080fd5b5061067d60048036038101906106789190613dd3565b611aa1565b60405161068a9190613ce7565b60405180910390f35b34801561069f57600080fd5b506106ba60048036038101906106b59190613c79565b611aec565b6040516106c79190613c21565b60405180910390f35b3480156106dc57600080fd5b506106f760048036038101906106f29190614443565b611bfe565b6040516107049190613b76565b60405180910390f35b61072760048036038101906107229190613dd3565b611c92565b005b34801561073557600080fd5b5061073e6121e2565b60405161074b9190614545565b60405180910390f35b34801561076057600080fd5b5061077b60048036038101906107769190613dd3565b6123c0565b6040516107889190614146565b60405180910390f35b60007f80ac58cd000000000000000000000000000000000000000000000000000000007bffffffffffffffffffffffffffffffffffffffffffffffffffffffff1916827bffffffffffffffffffffffffffffffffffffffffffffffffffffffff1916148061085c57507f5b5e139f000000000000000000000000000000000000000000000000000000007bffffffffffffffffffffffffffffffffffffffffffffffffffffffff1916827bffffffffffffffffffffffffffffffffffffffffffffffffffffffff1916145b8061086c575061086b82612500565b5b9050919050565b60606000805461088290614596565b80601f01602080910402602001604051908101604052809291908181526020018280546108ae90614596565b80156108fb5780601f106108d0576101008083540402835291602001916108fb565b820191906000526020600020905b8154815290600101906020018083116108de57829003601f168201915b5050505050905090565b60006109108261256a565b6004600083815260200190815260200160002060009054906101000a900473ffffffffffffffffffffffffffffffffffffffff169050919050565b600061095682611256565b90508073ffffffffffffffffffffffffffffffffffffffff168373ffffffffffffffffffffffffffffffffffffffff16036109c6576040517f08c379a00000000000000000000000000000000000000000000000000000000081526004016109bd90614639565b60405180910390fd5b8073ffffffffffffffffffffffffffffffffffffffff166109e56125b5565b73ffffffffffffffffffffffffffffffffffffffff161480610a145750610a1381610a0e6125b5565b611bfe565b5b610a53576040517f08c379a0000000000000000000000000000000000000000000000000000000008152600401610a4a906146cb565b60405180910390fd5b610a5d83836125bd565b505050565b610a6a613aa1565b600c8383604051610a7c92919061471b565b9081526020016040518091039020604051806060016040529081600082018054610aa590614596565b80601f0160208091040260200160405190810160405280929190818152602001828054610ad190614596565b8015610b1e5780601f10610af357610100808354040283529160200191610b1e565b820191906000526020600020905b815481529060010190602001808311610b0157829003601f168201915b50505050508152602001600182018054610b3790614596565b80601f0160208091040260200160405190810160405280929190818152602001828054610b6390614596565b8015610bb05780601f10610b8557610100808354040283529160200191610bb0565b820191906000526020600020905b815481529060010190602001808311610b9357829003601f168201915b50505050508152602001600282018054610bc990614596565b80601f0160208091040260200160405190810160405280929190818152602001828054610bf590614596565b8015610c425780601f10610c1757610100808354040283529160200191610c42565b820191906000526020600020905b815481529060010190602001808311610c2557829003601f168201915b505050505081525050905092915050565b600b8484604051610c6592919061471b565b908152602001604051809103902060009054906101000a900473ffffffffffffffffffffffffffffffffffffffff1673ffffffffffffffffffffffffffffffffffffffff163373ffffffffffffffffffffffffffffffffffffffff1614610cf8576040517f82b4290000000000000000000000000000000000000000000000000000000000815260040160405180910390fd5b8181600c8686604051610d0c92919061471b565b90815260200160405180910390206001019182610d2a9291906148eb565b50610dd66040518060600160405280602f815260200161598c602f913983838080601f016020809104026020016040519081016040528093929190818152602001838380828437600081840152601f19601f8201169050808301925050505050505086868080601f016020809104026020016040519081016040528093929190818152602001838380828437600081840152601f19601f82011690508083019250505050505050612676565b50505050565b610ded610de76125b5565b82612715565b610e2c576040517f08c379a0000000000000000000000000000000000000000000000000000000008152600401610e2390614a2d565b60405180910390fd5b610e378383836127aa565b505050565b600b818051602081018201805184825260208301602085012081835280955050505050506000915054906101000a900473ffffffffffffffffffffffffffffffffffffffff1681565b60088054610e9290614596565b80601f0160208091040260200160405190810160405280929190818152602001828054610ebe90614596565b8015610f0b5780601f10610ee057610100808354040283529160200191610f0b565b820191906000526020600020905b815481529060010190602001808311610eee57829003601f168201915b505050505081565b3373ffffffffffffffffffffffffffffffffffffffff16600b8585604051610f3c92919061471b565b908152602001604051809103902060009054906101000a900473ffffffffffffffffffffffffffffffffffffffff1673ffffffffffffffffffffffffffffffffffffffff1614610fc1576040517f08c379a0000000000000000000000000000000000000000000000000000000008152600401610fb890614abf565b60405180910390fd5b8181600c8686604051610fd592919061471b565b90815260200160405180910390206002019182610ff39291906148eb565b5061109f6040518060600160405280602a8152602001615a65602a913983838080601f016020809104026020016040519081016040528093929190818152602001838380828437600081840152601f19601f8201169050808301925050505050505086868080601f016020809104026020016040519081016040528093929190818152602001838380828437600081840152601f19601f82011690508083019250505050505050612676565b50505050565b6110ad611542565b6110b657600080fd5b600047905060003373ffffffffffffffffffffffffffffffffffffffff16826040516110e190614b10565b60006040518083038185875af1925050503d806000811461111e576040519150601f19603f3d011682016040523d82523d6000602084013e611123565b606091505b5050905080611167576040517f08c379a000000000000000000000000000000000000000000000000000000000815260040161115e90614b71565b60405180910390fd5b5050565b61118683838360405180602001604052806000815250611a3f565b505050565b600e60205280600052604060002060009150905080546111aa90614596565b80601f01602080910402602001604051908101604052809291908181526020018280546111d690614596565b80156112235780601f106111f857610100808354040283529160200191611223565b820191906000526020600020905b81548152906001019060200180831161120657829003601f168201915b505050505081565b6000600d838360405161123f92919061471b565b908152602001604051809103902054905092915050565b60008061126283612aa3565b9050600073ffffffffffffffffffffffffffffffffffffffff168173ffffffffffffffffffffffffffffffffffffffff16036112d3576040517f08c379a00000000000000000000000000000000000000000000000000000000081526004016112ca90614bdd565b60405180910390fd5b80915050919050565b60008073ffffffffffffffffffffffffffffffffffffffff168273ffffffffffffffffffffffffffffffffffffffff160361134c576040517f08c379a000000000000000000000000000000000000000000000000000000000815260040161134390614c6f565b60405180910390fd5b600360008373ffffffffffffffffffffffffffffffffffffffff1673ffffffffffffffffffffffffffffffffffffffff168152602001908152602001600020549050919050565b600b84846040516113a592919061471b565b908152602001604051809103902060009054906101000a900473ffffffffffffffffffffffffffffffffffffffff1673ffffffffffffffffffffffffffffffffffffffff163373ffffffffffffffffffffffffffffffffffffffff1614611438576040517f82b4290000000000000000000000000000000000000000000000000000000000815260040160405180910390fd5b8181600c868660405161144c92919061471b565b9081526020016040518091039020600001918261146a9291906148eb565b506115166040518060600160405280602b8152602001615a8f602b913983838080601f016020809104026020016040519081016040528093929190818152602001838380828437600081840152601f19601f8201169050808301925050505050505086868080601f016020809104026020016040519081016040528093929190818152602001838380828437600081840152601f19601f82011690508083019250505050505050612676565b50505050565b600f60009054906101000a900473ffffffffffffffffffffffffffffffffffffffff1681565b6000600f60009054906101000a900473ffffffffffffffffffffffffffffffffffffffff1673ffffffffffffffffffffffffffffffffffffffff163373ffffffffffffffffffffffffffffffffffffffff1614905090565b6060600180546115a990614596565b80601f01602080910402602001604051908101604052809291908181526020018280546115d590614596565b80156116225780601f106115f757610100808354040283529160200191611622565b820191906000526020600020905b81548152906001019060200180831161160557829003601f168201915b5050505050905090565b6000600361167d84848080601f016020809104026020016040519081016040528093929190818152602001838380828437600081840152601f19601f82011690508083019250505050505050612ae0565b101580156116d85750600a6116d584848080601f016020809104026020016040519081016040528093929190818152602001838380828437600081840152601f19601f82011690508083019250505050505050612ae0565b11155b905092915050565b6116f26116eb6125b5565b8383612c95565b5050565b600b888860405161170892919061471b565b908152602001604051809103902060009054906101000a900473ffffffffffffffffffffffffffffffffffffffff1673ffffffffffffffffffffffffffffffffffffffff163373ffffffffffffffffffffffffffffffffffffffff161461179b576040517f82b4290000000000000000000000000000000000000000000000000000000000815260040160405180910390fd5b8585600c8a8a6040516117af92919061471b565b908152602001604051809103902060000191826117cd9291906148eb565b508383600c8a8a6040516117e292919061471b565b908152602001604051809103902060010191826118009291906148eb565b508181600c8a8a60405161181592919061471b565b908152602001604051809103902060020191826118339291906148eb565b506118df6040518060600160405280602b8152602001615a8f602b913987878080601f016020809104026020016040519081016040528093929190818152602001838380828437600081840152601f19601f820116905080830192505050505050508a8a8080601f016020809104026020016040519081016040528093929190818152602001838380828437600081840152601f19601f82011690508083019250505050505050612676565b61198a6040518060600160405280602f815260200161598c602f913985858080601f016020809104026020016040519081016040528093929190818152602001838380828437600081840152601f19601f820116905080830192505050505050508a8a8080601f016020809104026020016040519081016040528093929190818152602001838380828437600081840152601f19601f82011690508083019250505050505050612676565b611a356040518060600160405280602a8152602001615a65602a913983838080601f016020809104026020016040519081016040528093929190818152602001838380828437600081840152601f19601f820116905080830192505050505050508a8a8080601f016020809104026020016040519081016040528093929190818152602001838380828437600081840152601f19601f82011690508083019250505050505050612676565b5050505050505050565b611a50611a4a6125b5565b83612715565b611a8f576040517f08c379a0000000000000000000000000000000000000000000000000000000008152600401611a8690614a2d565b60405180910390fd5b611a9b84848484612e01565b50505050565b6000600b8383604051611ab592919061471b565b908152602001604051809103902060009054906101000a900473ffffffffffffffffffffffffffffffffffffffff16905092915050565b6060611af78261256a565b6000600660008481526020019081526020016000208054611b1790614596565b80601f0160208091040260200160405190810160405280929190818152602001828054611b4390614596565b8015611b905780601f10611b6557610100808354040283529160200191611b90565b820191906000526020600020905b815481529060010190602001808311611b7357829003601f168201915b505050505090506000611ba1612e5d565b90506000815103611bb6578192505050611bf9565b600082511115611beb578082604051602001611bd3929190614cc0565b60405160208183030381529060405292505050611bf9565b611bf484612e74565b925050505b919050565b6000600560008473ffffffffffffffffffffffffffffffffffffffff1673ffffffffffffffffffffffffffffffffffffffff16815260200190815260200160002060008373ffffffffffffffffffffffffffffffffffffffff1673ffffffffffffffffffffffffffffffffffffffff16815260200190815260200160002060009054906101000a900460ff16905092915050565b600073ffffffffffffffffffffffffffffffffffffffff16600b8383604051611cbc92919061471b565b908152602001604051809103902060009054906101000a900473ffffffffffffffffffffffffffffffffffffffff1673ffffffffffffffffffffffffffffffffffffffff1614611d38576040517f3a81d6fc00000000000000000000000000000000000000000000000000000000815260040160405180910390fd5b611d42828261162c565b611d855781816040517f7f19f48d000000000000000000000000000000000000000000000000000000008152600401611d7c929190614d11565b60405180910390fd5b6000611d9183836123c0565b905080341015611dd6576040517f08c379a0000000000000000000000000000000000000000000000000000000008152600401611dcd90614d81565b60405180910390fd5b600083836008604051602001611dee93929190614e70565b60405160208183030381529060405290506000600982600a604051602001611e1893929190614ea1565b60405160208183030381529060405290506000611e356007612edc565b90506000611e8687878080601f016020809104026020016040519081016040528093929190818152602001838380828437600081840152601f19601f82011690508083019250505050505050612ae0565b90506000611e9382612eea565b9050611f876040518060600160405280603181526020016159bb6031913989898080601f016020809104026020016040519081016040528093929190818152602001838380828437600081840152601f19601f8201169050808301925050505050505060088054611f0390614596565b80601f0160208091040260200160405190810160405280929190818152602001828054611f2f90614596565b8015611f7c5780601f10611f5157610100808354040283529160200191611f7c565b820191906000526020600020905b815481529060010190602001808311611f5f57829003601f168201915b505050505086612fb8565b6000611fbd86611f968761305a565b84604051602001611fa993929190615074565b60405160208183030381529060405261305a565b9050600081604051602001611fd2919061511d565b6040516020818303038152906040529050612004604051806060016040528060398152602001615953603991396131bd565b6120436040518060400160405280600e81526020017f46696e616c20746f6b656e55524900000000000000000000000000000000000081525082612464565b6120646040518060600160405280603981526020016159ec603991396131bd565b61206e3386613256565b6120788582613274565b33600b8b8b60405161208b92919061471b565b908152602001604051809103902060006101000a81548173ffffffffffffffffffffffffffffffffffffffff021916908373ffffffffffffffffffffffffffffffffffffffff160217905550604051806060016040528060405180602001604052806000815250815260200160405180602001604052806000815250815260200160405180602001604052806000815250815250600c8b8b60405161213192919061471b565b90815260200160405180910390206000820151816000019081612154919061513f565b50602082015181600101908161216a919061513f565b506040820151816002019081612180919061513f565b5090505084600d8b8b60405161219792919061471b565b9081526020016040518091039020819055508989600e600088815260200190815260200160002091826121cb9291906148eb565b506121d660076132e1565b50505050505050505050565b60606122226040518060400160405280601f81526020017f47657474696e6720616c6c206e616d65732066726f6d20636f6e7472616374008152506131bd565b600061222e6007612edc565b67ffffffffffffffff81111561224757612246613fc3565b5b60405190808252806020026020018201604052801561227a57816020015b60608152602001906001900390816122655790505b50905060005b61228a6007612edc565b8110156123b857600e600082815260200190815260200160002080546122af90614596565b80601f01602080910402602001604051908101604052809291908181526020018280546122db90614596565b80156123285780601f106122fd57610100808354040283529160200191612328565b820191906000526020600020905b81548152906001019060200180831161230b57829003601f168201915b50505050508282815181106123405761233f615211565b5b60200260200101819052506123a56040518060400160405280601781526020017f4e616d6520666f7220746f6b656e2025642069732025730000000000000000008152508284848151811061239857612397615211565b5b60200260200101516132f7565b80806123b09061526f565b915050612280565b508091505090565b60008061241084848080601f016020809104026020016040519081016040528093929190818152602001838380828437600081840152601f19601f82011690508083019250505050505050612ae0565b90506000811161241f57600080fd5b6003810361243857670429d069189e000091505061245e565b60048103612451576702c68af0bb14000091505061245e565b67016345785d8a00009150505b92915050565b6124fc828260405160240161247a9291906152b7565b6040516020818303038152906040527f4b5c4277000000000000000000000000000000000000000000000000000000007bffffffffffffffffffffffffffffffffffffffffffffffffffffffff19166020820180517bffffffffffffffffffffffffffffffffffffffffffffffffffffffff8381831617835250505050613396565b5050565b60007f01ffc9a7000000000000000000000000000000000000000000000000000000007bffffffffffffffffffffffffffffffffffffffffffffffffffffffff1916827bffffffffffffffffffffffffffffffffffffffffffffffffffffffff1916149050919050565b612573816133bf565b6125b2576040517f08c379a00000000000000000000000000000000000000000000000000000000081526004016125a990614bdd565b60405180910390fd5b50565b600033905090565b816004600083815260200190815260200160002060006101000a81548173ffffffffffffffffffffffffffffffffffffffff021916908373ffffffffffffffffffffffffffffffffffffffff160217905550808273ffffffffffffffffffffffffffffffffffffffff1661263083611256565b73ffffffffffffffffffffffffffffffffffffffff167f8c5be1e5ebec7d5bd14f71427d1e84f3dd0314c0f7b2291e5b200ac8c7c3b92560405160405180910390a45050565b61271083838360405160240161268e939291906152ee565b6040516020818303038152906040527f2ced7cef000000000000000000000000000000000000000000000000000000007bffffffffffffffffffffffffffffffffffffffffffffffffffffffff19166020820180517bffffffffffffffffffffffffffffffffffffffffffffffffffffffff8381831617835250505050613396565b505050565b60008061272183611256565b90508073ffffffffffffffffffffffffffffffffffffffff168473ffffffffffffffffffffffffffffffffffffffff16148061276357506127628185611bfe565b5b806127a157508373ffffffffffffffffffffffffffffffffffffffff1661278984610905565b73ffffffffffffffffffffffffffffffffffffffff16145b91505092915050565b8273ffffffffffffffffffffffffffffffffffffffff166127ca82611256565b73ffffffffffffffffffffffffffffffffffffffff1614612820576040517f08c379a0000000000000000000000000000000000000000000000000000000008152600401612817906153ac565b60405180910390fd5b600073ffffffffffffffffffffffffffffffffffffffff168273ffffffffffffffffffffffffffffffffffffffff160361288f576040517f08c379a00000000000000000000000000000000000000000000000000000000081526004016128869061543e565b60405180910390fd5b61289c8383836001613400565b8273ffffffffffffffffffffffffffffffffffffffff166128bc82611256565b73ffffffffffffffffffffffffffffffffffffffff1614612912576040517f08c379a0000000000000000000000000000000000000000000000000000000008152600401612909906153ac565b60405180910390fd5b6004600082815260200190815260200160002060006101000a81549073ffffffffffffffffffffffffffffffffffffffff02191690556001600360008573ffffffffffffffffffffffffffffffffffffffff1673ffffffffffffffffffffffffffffffffffffffff168152602001908152602001600020600082825403925050819055506001600360008473ffffffffffffffffffffffffffffffffffffffff1673ffffffffffffffffffffffffffffffffffffffff16815260200190815260200160002060008282540192505081905550816002600083815260200190815260200160002060006101000a81548173ffffffffffffffffffffffffffffffffffffffff021916908373ffffffffffffffffffffffffffffffffffffffff160217905550808273ffffffffffffffffffffffffffffffffffffffff168473ffffffffffffffffffffffffffffffffffffffff167fddf252ad1be2c89b69c2b068fc378daa952ba7f163c4a11628f55a4df523b3ef60405160405180910390a4612a9e8383836001613526565b505050565b60006002600083815260200190815260200160002060009054906101000a900473ffffffffffffffffffffffffffffffffffffffff169050919050565b60008060008084519050600092505b80821015612c8a576000858381518110612b0c57612b0b615211565b5b602001015160f81c60f81b9050608060f81b817effffffffffffffffffffffffffffffffffffffffffffffffffffffffffffff19161015612b5b57600183612b54919061545e565b9250612c76565b60e060f81b817effffffffffffffffffffffffffffffffffffffffffffffffffffffffffffff19161015612b9d57600283612b96919061545e565b9250612c75565b60f060f81b817effffffffffffffffffffffffffffffffffffffffffffffffffffffffffffff19161015612bdf57600383612bd8919061545e565b9250612c74565b60f8801b817effffffffffffffffffffffffffffffffffffffffffffffffffffffffffffff19161015612c2057600483612c19919061545e565b9250612c73565b60fc60f81b817effffffffffffffffffffffffffffffffffffffffffffffffffffffffffffff19161015612c6257600583612c5b919061545e565b9250612c72565b600683612c6f919061545e565b92505b5b5b5b5b508280612c829061526f565b935050612aef565b829350505050919050565b8173ffffffffffffffffffffffffffffffffffffffff168373ffffffffffffffffffffffffffffffffffffffff1603612d03576040517f08c379a0000000000000000000000000000000000000000000000000000000008152600401612cfa906154de565b60405180910390fd5b80600560008573ffffffffffffffffffffffffffffffffffffffff1673ffffffffffffffffffffffffffffffffffffffff16815260200190815260200160002060008473ffffffffffffffffffffffffffffffffffffffff1673ffffffffffffffffffffffffffffffffffffffff16815260200190815260200160002060006101000a81548160ff0219169083151502179055508173ffffffffffffffffffffffffffffffffffffffff168373ffffffffffffffffffffffffffffffffffffffff167f17307eab39ab6107e8899845ad3d59bd9653f200f220920489ca2b5937696c3183604051612df49190613b76565b60405180910390a3505050565b612e0c8484846127aa565b612e188484848461352c565b612e57576040517f08c379a0000000000000000000000000000000000000000000000000000000008152600401612e4e90615570565b60405180910390fd5b50505050565b606060405180602001604052806000815250905090565b6060612e7f8261256a565b6000612e89612e5d565b90506000815111612ea95760405180602001604052806000815250612ed4565b80612eb384612eea565b604051602001612ec4929190614cc0565b6040516020818303038152906040525b915050919050565b600081600001549050919050565b606060006001612ef9846136b3565b01905060008167ffffffffffffffff811115612f1857612f17613fc3565b5b6040519080825280601f01601f191660200182016040528015612f4a5781602001600182028036833780820191505090505b509050600082602001820190505b600115612fad578080600190039150507f3031323334353637383961626364656600000000000000000000000000000000600a86061a8153600a8581612fa157612fa0615590565b5b04945060008503612f58575b819350505050919050565b61305484848484604051602401612fd294939291906155bf565b6040516020818303038152906040527f8eafb02b000000000000000000000000000000000000000000000000000000007bffffffffffffffffffffffffffffffffffffffffffffffffffffffff19166020820180517bffffffffffffffffffffffffffffffffffffffffffffffffffffffff8381831617835250505050613396565b50505050565b6060600082510361307c576040518060200160405280600081525090506131b8565b6000604051806060016040528060408152602001615a2560409139905060006003600285516130ab919061545e565b6130b59190615619565b60046130c1919061564a565b67ffffffffffffffff8111156130da576130d9613fc3565b5b6040519080825280601f01601f19166020018201604052801561310c5781602001600182028036833780820191505090505b509050600182016020820185865187015b80821015613178576003820191508151603f8160121c168501518453600184019350603f81600c1c168501518453600184019350603f8160061c168501518453600184019350603f811685015184536001840193505061311d565b505060038651066001811461319457600281146131a7576131af565b603d6001830353603d60028303536131af565b603d60018303535b50505080925050505b919050565b613253816040516024016131d19190613c21565b6040516020818303038152906040527f41304fac000000000000000000000000000000000000000000000000000000007bffffffffffffffffffffffffffffffffffffffffffffffffffffffff19166020820180517bffffffffffffffffffffffffffffffffffffffffffffffffffffffff8381831617835250505050613396565b50565b613270828260405180602001604052806000815250613806565b5050565b61327d826133bf565b6132bc576040517f08c379a00000000000000000000000000000000000000000000000000000000081526004016132b3906156fe565b60405180910390fd5b806006600084815260200190815260200160002090816132dc919061513f565b505050565b6001816000016000828254019250508190555050565b61339183838360405160240161330f9392919061571e565b6040516020818303038152906040527f5970e089000000000000000000000000000000000000000000000000000000007bffffffffffffffffffffffffffffffffffffffffffffffffffffffff19166020820180517bffffffffffffffffffffffffffffffffffffffffffffffffffffffff8381831617835250505050613396565b505050565b60008151905060006a636f6e736f6c652e6c6f679050602083016000808483855afa5050505050565b60008073ffffffffffffffffffffffffffffffffffffffff166133e183612aa3565b73ffffffffffffffffffffffffffffffffffffffff1614159050919050565b600181111561352057600073ffffffffffffffffffffffffffffffffffffffff168473ffffffffffffffffffffffffffffffffffffffff16146134945780600360008673ffffffffffffffffffffffffffffffffffffffff1673ffffffffffffffffffffffffffffffffffffffff168152602001908152602001600020600082825461348c9190615763565b925050819055505b600073ffffffffffffffffffffffffffffffffffffffff168373ffffffffffffffffffffffffffffffffffffffff161461351f5780600360008573ffffffffffffffffffffffffffffffffffffffff1673ffffffffffffffffffffffffffffffffffffffff1681526020019081526020016000206000828254613517919061545e565b925050819055505b5b50505050565b50505050565b600061354d8473ffffffffffffffffffffffffffffffffffffffff16613861565b156136a6578373ffffffffffffffffffffffffffffffffffffffff1663150b7a026135766125b5565b8786866040518563ffffffff1660e01b815260040161359894939291906157ec565b6020604051808303816000875af19250505080156135d457506040513d601f19601f820116820180604052508101906135d1919061584d565b60015b613656573d8060008114613604576040519150601f19603f3d011682016040523d82523d6000602084013e613609565b606091505b50600081510361364e576040517f08c379a000000000000000000000000000000000000000000000000000000000815260040161364590615570565b60405180910390fd5b805181602001fd5b63150b7a0260e01b7bffffffffffffffffffffffffffffffffffffffffffffffffffffffff1916817bffffffffffffffffffffffffffffffffffffffffffffffffffffffff1916149150506136ab565b600190505b949350505050565b600080600090507a184f03e93ff9f4daa797ed6e38ed64bf6a1f0100000000000000008310613711577a184f03e93ff9f4daa797ed6e38ed64bf6a1f010000000000000000838161370757613706615590565b5b0492506040810190505b6d04ee2d6d415b85acef8100000000831061374e576d04ee2d6d415b85acef8100000000838161374457613743615590565b5b0492506020810190505b662386f26fc10000831061377d57662386f26fc10000838161377357613772615590565b5b0492506010810190505b6305f5e10083106137a6576305f5e100838161379c5761379b615590565b5b0492506008810190505b61271083106137cb5761271083816137c1576137c0615590565b5b0492506004810190505b606483106137ee57606483816137e4576137e3615590565b5b0492506002810190505b600a83106137fd576001810190505b80915050919050565b6138108383613884565b61381d600084848461352c565b61385c576040517f08c379a000000000000000000000000000000000000000000000000000000000815260040161385390615570565b60405180910390fd5b505050565b6000808273ffffffffffffffffffffffffffffffffffffffff163b119050919050565b600073ffffffffffffffffffffffffffffffffffffffff168273ffffffffffffffffffffffffffffffffffffffff16036138f3576040517f08c379a00000000000000000000000000000000000000000000000000000000081526004016138ea906158c6565b60405180910390fd5b6138fc816133bf565b1561393c576040517f08c379a000000000000000000000000000000000000000000000000000000000815260040161393390615932565b60405180910390fd5b61394a600083836001613400565b613953816133bf565b15613993576040517f08c379a000000000000000000000000000000000000000000000000000000000815260040161398a90615932565b60405180910390fd5b6001600360008473ffffffffffffffffffffffffffffffffffffffff1673ffffffffffffffffffffffffffffffffffffffff16815260200190815260200160002060008282540192505081905550816002600083815260200190815260200160002060006101000a81548173ffffffffffffffffffffffffffffffffffffffff021916908373ffffffffffffffffffffffffffffffffffffffff160217905550808273ffffffffffffffffffffffffffffffffffffffff16600073ffffffffffffffffffffffffffffffffffffffff167fddf252ad1be2c89b69c2b068fc378daa952ba7f163c4a11628f55a4df523b3ef60405160405180910390a4613a9d600083836001613526565b5050565b60405180606001604052806060815260200160608152602001606081525090565b6000604051905090565b600080fd5b600080fd5b60007fffffffff0000000000000000000000000000000000000000000000000000000082169050919050565b613b0b81613ad6565b8114613b1657600080fd5b50565b600081359050613b2881613b02565b92915050565b600060208284031215613b4457613b43613acc565b5b6000613b5284828501613b19565b91505092915050565b60008115159050919050565b613b7081613b5b565b82525050565b6000602082019050613b8b6000830184613b67565b92915050565b600081519050919050565b600082825260208201905092915050565b60005b83811015613bcb578082015181840152602081019050613bb0565b60008484015250505050565b6000601f19601f8301169050919050565b6000613bf382613b91565b613bfd8185613b9c565b9350613c0d818560208601613bad565b613c1681613bd7565b840191505092915050565b60006020820190508181036000830152613c3b8184613be8565b905092915050565b6000819050919050565b613c5681613c43565b8114613c6157600080fd5b50565b600081359050613c7381613c4d565b92915050565b600060208284031215613c8f57613c8e613acc565b5b6000613c9d84828501613c64565b91505092915050565b600073ffffffffffffffffffffffffffffffffffffffff82169050919050565b6000613cd182613ca6565b9050919050565b613ce181613cc6565b82525050565b6000602082019050613cfc6000830184613cd8565b92915050565b613d0b81613cc6565b8114613d1657600080fd5b50565b600081359050613d2881613d02565b92915050565b60008060408385031215613d4557613d44613acc565b5b6000613d5385828601613d19565b9250506020613d6485828601613c64565b9150509250929050565b600080fd5b600080fd5b600080fd5b60008083601f840112613d9357613d92613d6e565b5b8235905067ffffffffffffffff811115613db057613daf613d73565b5b602083019150836001820283011115613dcc57613dcb613d78565b5b9250929050565b60008060208385031215613dea57613de9613acc565b5b600083013567ffffffffffffffff811115613e0857613e07613ad1565b5b613e1485828601613d7d565b92509250509250929050565b600082825260208201905092915050565b6000613e3c82613b91565b613e468185613e20565b9350613e56818560208601613bad565b613e5f81613bd7565b840191505092915050565b60006060830160008301518482036000860152613e878282613e31565b91505060208301518482036020860152613ea18282613e31565b91505060408301518482036040860152613ebb8282613e31565b9150508091505092915050565b60006020820190508181036000830152613ee28184613e6a565b905092915050565b60008060008060408587031215613f0457613f03613acc565b5b600085013567ffffffffffffffff811115613f2257613f21613ad1565b5b613f2e87828801613d7d565b9450945050602085013567ffffffffffffffff811115613f5157613f50613ad1565b5b613f5d87828801613d7d565b925092505092959194509250565b600080600060608486031215613f8457613f83613acc565b5b6000613f9286828701613d19565b9350506020613fa386828701613d19565b9250506040613fb486828701613c64565b9150509250925092565b600080fd5b7f4e487b7100000000000000000000000000000000000000000000000000000000600052604160045260246000fd5b613ffb82613bd7565b810181811067ffffffffffffffff8211171561401a57614019613fc3565b5b80604052505050565b600061402d613ac2565b90506140398282613ff2565b919050565b600067ffffffffffffffff82111561405957614058613fc3565b5b61406282613bd7565b9050602081019050919050565b82818337600083830152505050565b600061409161408c8461403e565b614023565b9050828152602081018484840111156140ad576140ac613fbe565b5b6140b884828561406f565b509392505050565b600082601f8301126140d5576140d4613d6e565b5b81356140e584826020860161407e565b91505092915050565b60006020828403121561410457614103613acc565b5b600082013567ffffffffffffffff81111561412257614121613ad1565b5b61412e848285016140c0565b91505092915050565b61414081613c43565b82525050565b600060208201905061415b6000830184614137565b92915050565b60006020828403121561417757614176613acc565b5b600061418584828501613d19565b91505092915050565b600061419982613ca6565b9050919050565b6141a98161418e565b82525050565b60006020820190506141c460008301846141a0565b92915050565b6141d381613b5b565b81146141de57600080fd5b50565b6000813590506141f0816141ca565b92915050565b6000806040838503121561420d5761420c613acc565b5b600061421b85828601613d19565b925050602061422c858286016141e1565b9150509250929050565b6000806000806000806000806080898b03121561425657614255613acc565b5b600089013567ffffffffffffffff81111561427457614273613ad1565b5b6142808b828c01613d7d565b9850985050602089013567ffffffffffffffff8111156142a3576142a2613ad1565b5b6142af8b828c01613d7d565b9650965050604089013567ffffffffffffffff8111156142d2576142d1613ad1565b5b6142de8b828c01613d7d565b9450945050606089013567ffffffffffffffff81111561430157614300613ad1565b5b61430d8b828c01613d7d565b92509250509295985092959890939650565b600067ffffffffffffffff82111561433a57614339613fc3565b5b61434382613bd7565b9050602081019050919050565b600061436361435e8461431f565b614023565b90508281526020810184848401111561437f5761437e613fbe565b5b61438a84828561406f565b509392505050565b600082601f8301126143a7576143a6613d6e565b5b81356143b7848260208601614350565b91505092915050565b600080600080608085870312156143da576143d9613acc565b5b60006143e887828801613d19565b94505060206143f987828801613d19565b935050604061440a87828801613c64565b925050606085013567ffffffffffffffff81111561442b5761442a613ad1565b5b61443787828801614392565b91505092959194509250565b6000806040838503121561445a57614459613acc565b5b600061446885828601613d19565b925050602061447985828601613d19565b9150509250929050565b600081519050919050565b600082825260208201905092915050565b6000819050602082019050919050565b60006144bb8383613e31565b905092915050565b6000602082019050919050565b60006144db82614483565b6144e5818561448e565b9350836020820285016144f78561449f565b8060005b85811015614533578484038952815161451485826144af565b945061451f836144c3565b925060208a019950506001810190506144fb565b50829750879550505050505092915050565b6000602082019050818103600083015261455f81846144d0565b905092915050565b7f4e487b7100000000000000000000000000000000000000000000000000000000600052602260045260246000fd5b600060028204905060018216806145ae57607f821691505b6020821081036145c1576145c0614567565b5b50919050565b7f4552433732313a20617070726f76616c20746f2063757272656e74206f776e6560008201527f7200000000000000000000000000000000000000000000000000000000000000602082015250565b6000614623602183613b9c565b915061462e826145c7565b604082019050919050565b6000602082019050818103600083015261465281614616565b9050919050565b7f4552433732313a20617070726f76652063616c6c6572206973206e6f7420746f60008201527f6b656e206f776e6572206f7220617070726f76656420666f7220616c6c000000602082015250565b60006146b5603d83613b9c565b91506146c082614659565b604082019050919050565b600060208201905081810360008301526146e4816146a8565b9050919050565b600081905092915050565b600061470283856146eb565b935061470f83858461406f565b82840190509392505050565b60006147288284866146f6565b91508190509392505050565b600082905092915050565b60008190508160005260206000209050919050565b60006020601f8301049050919050565b600082821b905092915050565b6000600883026147a17fffffffffffffffffffffffffffffffffffffffffffffffffffffffffffffffff82614764565b6147ab8683614764565b95508019841693508086168417925050509392505050565b6000819050919050565b60006147e86147e36147de84613c43565b6147c3565b613c43565b9050919050565b6000819050919050565b614802836147cd565b61481661480e826147ef565b848454614771565b825550505050565b600090565b61482b61481e565b6148368184846147f9565b505050565b5b8181101561485a5761484f600082614823565b60018101905061483c565b5050565b601f82111561489f576148708161473f565b61487984614754565b81016020851015614888578190505b61489c61489485614754565b83018261483b565b50505b505050565b600082821c905092915050565b60006148c2600019846008026148a4565b1980831691505092915050565b60006148db83836148b1565b9150826002028217905092915050565b6148f58383614734565b67ffffffffffffffff81111561490e5761490d613fc3565b5b6149188254614596565b61492382828561485e565b6000601f8311600181146149525760008415614940578287013590505b61494a85826148cf565b8655506149b2565b601f1984166149608661473f565b60005b8281101561498857848901358255600182019150602085019450602081019050614963565b868310156149a557848901356149a1601f8916826148b1565b8355505b6001600288020188555050505b50505050505050565b7f4552433732313a2063616c6c6572206973206e6f7420746f6b656e206f776e6560008201527f72206f7220617070726f76656400000000000000000000000000000000000000602082015250565b6000614a17602d83613b9c565b9150614a22826149bb565b604082019050919050565b60006020820190508181036000830152614a4681614a0a565b9050919050565b7f596f75277265206e6f7420746865206f776e6572206f662074686520646f6d6160008201527f696e000000000000000000000000000000000000000000000000000000000000602082015250565b6000614aa9602283613b9c565b9150614ab482614a4d565b604082019050919050565b60006020820190508181036000830152614ad881614a9c565b9050919050565b600081905092915050565b50565b6000614afa600083614adf565b9150614b0582614aea565b600082019050919050565b6000614b1b82614aed565b9150819050919050565b7f4661696c656420746f207769746864726177204d617469630000000000000000600082015250565b6000614b5b601883613b9c565b9150614b6682614b25565b602082019050919050565b60006020820190508181036000830152614b8a81614b4e565b9050919050565b7f4552433732313a20696e76616c696420746f6b656e2049440000000000000000600082015250565b6000614bc7601883613b9c565b9150614bd282614b91565b602082019050919050565b60006020820190508181036000830152614bf681614bba565b9050919050565b7f4552433732313a2061646472657373207a65726f206973206e6f74206120766160008201527f6c6964206f776e65720000000000000000000000000000000000000000000000602082015250565b6000614c59602983613b9c565b9150614c6482614bfd565b604082019050919050565b60006020820190508181036000830152614c8881614c4c565b9050919050565b6000614c9a82613b91565b614ca481856146eb565b9350614cb4818560208601613bad565b80840191505092915050565b6000614ccc8285614c8f565b9150614cd88284614c8f565b91508190509392505050565b6000614cf08385613b9c565b9350614cfd83858461406f565b614d0683613bd7565b840190509392505050565b60006020820190508181036000830152614d2c818486614ce4565b90509392505050565b7f496e73756666696369656e742046756e64730000000000000000000000000000600082015250565b6000614d6b601283613b9c565b9150614d7682614d35565b602082019050919050565b60006020820190508181036000830152614d9a81614d5e565b9050919050565b7f2e00000000000000000000000000000000000000000000000000000000000000600082015250565b6000614dd76001836146eb565b9150614de282614da1565b600182019050919050565b60008154614dfa81614596565b614e0481866146eb565b94506001821660008114614e1f5760018114614e3457614e67565b60ff1983168652811515820286019350614e67565b614e3d8561473f565b60005b83811015614e5f57815481890152600182019150602081019050614e40565b838801955050505b50505092915050565b6000614e7d8285876146f6565b9150614e8882614dca565b9150614e948284614ded565b9150819050949350505050565b6000614ead8286614ded565b9150614eb98285614c8f565b9150614ec58284614ded565b9150819050949350505050565b7f7b226e616d65223a202200000000000000000000000000000000000000000000600082015250565b6000614f08600a836146eb565b9150614f1382614ed2565b600a82019050919050565b7f222c20226465736372697074696f6e223a2022444e5320496d706c656d656e7460008201527f6174696f6e20666f722074686520506f6c79676f6e2041667269636120426f6f60208201527f7463616d702032303232222c2022696d616765223a2022646174613a696d616760408201527f652f7376672b786d6c3b6261736536342c000000000000000000000000000000606082015250565b6000614fc66071836146eb565b9150614fd182614f1e565b607182019050919050565b7f222c226c656e677468223a220000000000000000000000000000000000000000600082015250565b6000615012600c836146eb565b915061501d82614fdc565b600c82019050919050565b7f227d000000000000000000000000000000000000000000000000000000000000600082015250565b600061505e6002836146eb565b915061506982615028565b600282019050919050565b600061507f82614efb565b915061508b8286614c8f565b915061509682614fb9565b91506150a28285614c8f565b91506150ad82615005565b91506150b98284614c8f565b91506150c482615051565b9150819050949350505050565b7f646174613a6170706c69636174696f6e2f6a736f6e3b6261736536342c000000600082015250565b6000615107601d836146eb565b9150615112826150d1565b601d82019050919050565b6000615128826150fa565b91506151348284614c8f565b915081905092915050565b61514882613b91565b67ffffffffffffffff81111561516157615160613fc3565b5b61516b8254614596565b61517682828561485e565b600060209050601f8311600181146151a95760008415615197578287015190505b6151a185826148cf565b865550615209565b601f1984166151b78661473f565b60005b828110156151df578489015182556001820191506020850194506020810190506151ba565b868310156151fc57848901516151f8601f8916826148b1565b8355505b6001600288020188555050505b505050505050565b7f4e487b7100000000000000000000000000000000000000000000000000000000600052603260045260246000fd5b7f4e487b7100000000000000000000000000000000000000000000000000000000600052601160045260246000fd5b600061527a82613c43565b91507fffffffffffffffffffffffffffffffffffffffffffffffffffffffffffffffff82036152ac576152ab615240565b5b600182019050919050565b600060408201905081810360008301526152d18185613be8565b905081810360208301526152e58184613be8565b90509392505050565b600060608201905081810360008301526153088186613be8565b9050818103602083015261531c8185613be8565b905081810360408301526153308184613be8565b9050949350505050565b7f4552433732313a207472616e736665722066726f6d20696e636f72726563742060008201527f6f776e6572000000000000000000000000000000000000000000000000000000602082015250565b6000615396602583613b9c565b91506153a18261533a565b604082019050919050565b600060208201905081810360008301526153c581615389565b9050919050565b7f4552433732313a207472616e7366657220746f20746865207a65726f2061646460008201527f7265737300000000000000000000000000000000000000000000000000000000602082015250565b6000615428602483613b9c565b9150615433826153cc565b604082019050919050565b600060208201905081810360008301526154578161541b565b9050919050565b600061546982613c43565b915061547483613c43565b925082820190508082111561548c5761548b615240565b5b92915050565b7f4552433732313a20617070726f766520746f2063616c6c657200000000000000600082015250565b60006154c8601983613b9c565b91506154d382615492565b602082019050919050565b600060208201905081810360008301526154f7816154bb565b9050919050565b7f4552433732313a207472616e7366657220746f206e6f6e20455243373231526560008201527f63656976657220696d706c656d656e7465720000000000000000000000000000602082015250565b600061555a603283613b9c565b9150615565826154fe565b604082019050919050565b600060208201905081810360008301526155898161554d565b9050919050565b7f4e487b7100000000000000000000000000000000000000000000000000000000600052601260045260246000fd5b600060808201905081810360008301526155d98187613be8565b905081810360208301526155ed8186613be8565b905081810360408301526156018185613be8565b90506156106060830184614137565b95945050505050565b600061562482613c43565b915061562f83613c43565b92508261563f5761563e615590565b5b828204905092915050565b600061565582613c43565b915061566083613c43565b925082820261566e81613c43565b9150828204841483151761568557615684615240565b5b5092915050565b7f45524337323155524953746f726167653a2055524920736574206f66206e6f6e60008201527f6578697374656e7420746f6b656e000000000000000000000000000000000000602082015250565b60006156e8602e83613b9c565b91506156f38261568c565b604082019050919050565b60006020820190508181036000830152615717816156db565b9050919050565b600060608201905081810360008301526157388186613be8565b90506157476020830185614137565b81810360408301526157598184613be8565b9050949350505050565b600061576e82613c43565b915061577983613c43565b925082820390508181111561579157615790615240565b5b92915050565b600081519050919050565b600082825260208201905092915050565b60006157be82615797565b6157c881856157a2565b93506157d8818560208601613bad565b6157e181613bd7565b840191505092915050565b60006080820190506158016000830187613cd8565b61580e6020830186613cd8565b61581b6040830185614137565b818103606083015261582d81846157b3565b905095945050505050565b60008151905061584781613b02565b92915050565b60006020828403121561586357615862613acc565b5b600061587184828501615838565b91505092915050565b7f4552433732313a206d696e7420746f20746865207a65726f2061646472657373600082015250565b60006158b0602083613b9c565b91506158bb8261587a565b602082019050919050565b600060208201905081810360008301526158df816158a3565b9050919050565b7f4552433732313a20746f6b656e20616c7265616479206d696e74656400000000600082015250565b600061591c601c83613b9c565b9150615927826158e6565b602082019050919050565b6000602082019050818103600083015261594b8161590f565b905091905056fe0a2d2d2d2d2d2d2d2d2d2d2d2d2d2d2d2d2d2d2d2d2d2d2d2d2d2d2d2d2d2d2d2d2d2d2d2d2d2d2d2d2d2d2d2d2d2d2d2d2d2d2d2d2d2d2d2d53657474696e672053706f74696679204c696e6b207265636f726420746f20257320666f7220646f6d61696e2025735265676973746572696e672025732e2573206f6e2074686520636f6e7472616374207769746820746f6b656e49442025642d2d2d2d2d2d2d2d2d2d2d2d2d2d2d2d2d2d2d2d2d2d2d2d2d2d2d2d2d2d2d2d2d2d2d2d2d2d2d2d2d2d2d2d2d2d2d2d2d2d2d2d2d2d2d2d0a4142434445464748494a4b4c4d4e4f505152535455565758595a6162636465666768696a6b6c6d6e6f707172737475767778797a303132333435363738392b2f53657474696e672054776974746572207265636f726420746f20257320666f7220646f6d61696e20257353657474696e67206e69636b6e616d65207265636f726420746f20257320666f7220646f6d61696e202573a2646970667358221220341bb0cd864f8aee6eaec5f0fc96b38adf711bc486fe68c4029127ff21c213c064736f6c634300081100333c73766720786d6c6e733d22687474703a2f2f7777772e77332e6f72672f323030302f737667222077696474683d2232373022206865696768743d22323730222066696c6c3d226e6f6e65223e3c706174682066696c6c3d2275726c282342292220643d224d302030683237307632373048307a222f3e3c646566733e3c66696c7465722069643d22412220636f6c6f722d696e746572706f6c6174696f6e2d66696c746572733d2273524742222066696c746572556e6974733d227573657253706163654f6e55736522206865696768743d22323730222077696474683d22323730223e3c666544726f70536861646f772064783d2230222064793d22312220737464446576696174696f6e3d22322220666c6f6f642d6f7061636974793d222e323235222077696474683d223230302522206865696768743d2232303025222f3e3c2f66696c7465723e3c2f646566733e3c7061746820643d224d37322e3836332034322e393439632d2e3636382d2e3338372d312e3432362d2e35392d322e3139372d2e3539732d312e3532392e3230342d322e3139372e35396c2d31302e30383120362e3033322d362e383520332e3933342d31302e30383120362e303332632d2e3636382e3338372d312e3432362e35392d322e3139372e3539732d312e3532392d2e3230342d322e3139372d2e35396c2d382e3031332d342e37323161342e353220342e35322030203020312d312e3538392d312e363136632d2e3338342d2e3636352d2e3539342d312e3431382d2e3630382d322e313837762d392e3331632d2e3031332d2e3737352e3138352d312e3533382e3537322d322e32303861342e323520342e323520302030203120312e3632352d312e3539356c372e3838342d342e3539632e3636382d2e33383720312e3432362d2e353920322e3139372d2e353973312e3532392e32303420322e3139372e35396c372e38383420342e353961342e353220342e353220302030203120312e35383920312e363136632e3338342e3636352e35393420312e3431382e36303820322e31383776362e3033326c362e38352d342e303635762d362e303332632e3031332d2e3737352d2e3138352d312e3533382d2e3537322d322e32303861342e323520342e32352030203020302d312e3632352d312e3539354c34312e3435362032342e3539632d2e3636382d2e3338372d312e3432362d2e35392d322e3139372d2e3539732d312e3532392e3230342d322e3139372e35396c2d31342e38363420382e36353561342e323520342e32352030203020302d312e36323520312e353935632d2e3338372e36372d2e35383520312e3433342d2e35373220322e3230387631372e343431632d2e3031332e3737352e31383520312e3533382e35373220322e32303861342e323520342e323520302030203020312e36323520312e3539356c31342e38363420382e363535632e3636382e33383720312e3432362e353920322e3139372e353973312e3532392d2e32303420322e3139372d2e35396c31302e3038312d352e39303120362e38352d342e3036352031302e3038312d352e393031632e3636382d2e33383720312e3432362d2e353920322e3139372d2e353973312e3532392e32303420322e3139372e35396c372e38383420342e353961342e353220342e353220302030203120312e35383920312e363136632e3338342e3636352e35393420312e3431382e36303820322e31383776392e333131632e3031332e3737352d2e31383520312e3533382d2e35373220322e32303861342e323520342e32352030203020312d312e36323520312e3539356c2d372e38383420342e373231632d2e3636382e3338372d312e3432362e35392d322e3139372e3539732d312e3532392d2e3230342d322e3139372d2e35396c2d372e3838342d342e353961342e353220342e35322030203020312d312e3538392d312e363136632d2e3338352d2e3636352d2e3539342d312e3431382d2e3630382d322e313837762d362e3033326c2d362e383520342e30363576362e303332632d2e3031332e3737352e31383520312e3533382e35373220322e32303861342e323520342e323520302030203020312e36323520312e3539356c31342e38363420382e363535632e3636382e33383720312e3432362e353920322e3139372e353973312e3532392d2e32303420322e3139372d2e35396c31342e3836342d382e363535632e3635372d2e33393420312e3230342d2e393520312e3538392d312e363136732e3539342d312e3431382e3630392d322e3138375635352e353338632e3031332d2e3737352d2e3138352d312e3533382d2e3537322d322e32303861342e323520342e32352030203020302d312e3632352d312e3539356c2d31342e3939332d382e3738367a222066696c6c3d2223666666222f3e3c646566733e3c6c696e6561724772616469656e742069643d2242222078313d2230222079313d2230222078323d22323730222079323d2232373022206772616469656e74556e6974733d227573657253706163654f6e557365223e3c73746f702073746f702d636f6c6f723d2223636235656565222f3e3c73746f70206f66667365743d2231222073746f702d636f6c6f723d2223306364376534222073746f702d6f7061636974793d222e3939222f3e3c2f6c696e6561724772616469656e743e3c2f646566733e3c7465787420783d2233322e352220793d223233312220666f6e742d73697a653d223237222066696c6c3d2223666666222066696c7465723d2275726c282341292220666f6e742d66616d696c793d22506c7573204a616b617274612053616e732c44656a6156752053616e732c4e6f746f20436f6c6f7220456d6f6a692c4170706c6520436f6c6f7220456d6f6a692c73616e732d73657269662220666f6e742d7765696768743d22626f6c64223e",
  "linkReferences": {},
  "deployedLinkReferences": {}
}